:100000000C94A3000C94CB000C94CB000C94CB006C
:100010000C94CB000C94CB000C94CB000C94CB0034
:100020000C94CB000C94CB000C94CB000C94CB0024
:100030000C94CB000C94CB000C94CB000C94CB0014
:100040000C9457060C94CB000C944A050C947C0538
:100050000C94CB000C94CB000C94CB000C94CB00F4
:100060000C94CB000C94CB0007634236B79BD8A707
:100070001A39685618AEBAAB558C1D3CB7CC5763CD
:10008000BD6DEDFD753EF6177231BF000000803F7B
:1000900008000000BE922449123EABAAAA2ABECD97
:1000A000CCCC4C3E00000080BEABAAAAAA3E000009
:1000B0000000BF000000803F000000000008417801
:1000C000D3BB4387D1133D190E3CC3BD4282AD2B38
:1000D0003E68EC8276BED98FE1A93E4C80EFFFBE30
:1000E00001C4FF7F3F000000000000000009000382
:1000F00002000004050800000000000000000000ED
:1001000000010204081020408001020408102001B0
:100110000204081020408040040404040404040481
:1001200002020202020203030303030302020300AA
:10013000000000250028002B0000000000240027FC
:10014000002A0000AC0511241FBECFEFD8E0DEBFAF
:10015000CDBF11E0A0E0B1E0ECEEF7E102C0059008
:100160000D92A631B107D9F721E0A6E1B1E001C0B7
:100170001D92AC3DB207E1F710E0C3EAD0E004C045
:100180002197FE010E94DF0BC23AD107C9F70E94F6
:1001900048060C94F40B0C94000026E040E855E26D
:1001A00060E070E086E391E00C94F8048F929F92F7
:1001B000AF92BF92CF92DF92EF92FF920F931F9375
:1001C0000E94A10660932E0170932F01809330014D
:1001D0009093310160932A0170932B0180932C013D
:1001E00090932D016091340170E090E080E01F92C7
:1001F0001F921F9224E62F93ECE9AE2EBB24BA94F3
:10020000CB2CDB2C18ECE12EF12C00E010E020E0F0
:1002100030E0A9010E940606709333016093320119
:100220000F900F900F900F9040913401493C08F0CF
:1002300072C040912101442309F46DC04091200116
:10024000411169C0663071050CF431C1C0902E01B6
:10025000D0902F01E0903001F0903101C092260142
:10026000D0922701E0922801F0922901072E000C7C
:10027000880B990B0E94DC086B017C0160910001E6
:1002800070910101072E000C880B990B0E94DC086D
:100290004B015C0120E030E048EC52E4C701B601BC
:1002A0000E943208A50194010E94FE099B01AC0145
:1002B000C701B6010E9491096B017C0120E030E08A
:1002C000A9010E948C09181624F0F7FAF094F7F8A7
:1002D000F094C701B6010E94A4081F921F921F92BA
:1002E0002FEF2F93A12CB12C650114E6E12EF12CF8
:1002F00000E010E020E030E0A9010E9406067093C3
:100300001F0160931E0110921D0110921C010F909D
:100310000F900F900F9080913401893C08F076C0C7
:1003200080912001882309F471C0809121018111FD
:100330006DC06091320170913301663071050CF42B
:1003400045C180912E0190912F01A0913001B09173
:1003500031018093220190932301A0932401B09353
:100360002501072E000C880B990B0E94DC086B01FD
:100370007C016091000170910101072E000C880B37
:10038000990B0E94DC084B015C0120E030E048EC56
:1003900052E4C701B6010E943208A50194010E94EF
:1003A000FE099B01AC01C701B6010E9491096B01D6
:1003B0007C0120E030E0A9010E948C09181624F08D
:1003C000F7FAF094F7F8F094C701B6010E94A40878
:1003D0001F921F921F922FEF2F93A12CB12C65011A
:1003E00014E6E12EF12C00E010E020E030E0A9015D
:1003F0000E94060670931B0160931A011092190166
:10040000109218010F900F900F900F90809116018D
:1004100090911701019749F480913401893C28F4A7
:1004200090E0909301018093000186E391E00E94A7
:100430001E04892BB1F086E391E00E94380480937A
:1004400034018F3C09F4DEC108F065C18B3C09F42E
:10045000A2C108F04AC1893C09F489C18A3C09F467
:1004600090C160911E0170911F0189E00E94D50624
:1004700060911C0170911D018AE00E94D506609177
:100480001A0170911B0185E00E94D5066091180148
:100490007091190186E01F910F91FF90EF90DF900E
:1004A000CF90BF90AF909F908F900C94D5066B3FEC
:1004B0004FEF74070CF062C0C0902E01D0902F0156
:1004C000E0903001F0903101C0922601D0922701D6
:1004D000E0922801F092290110921F0110921E0152
:1004E000072E000C880B990B0E94DC086B017C0125
:1004F0006091000170910101072E000C880B990B8F
:100500000E94DC084B015C0120E030E048EC52E442
:10051000C701B6010E943208A50194010E94FE099C
:100520009B01AC01C701B6010E9491096B017C01DE
:1005300020E030E0A9010E948C09181624F0F7FA97
:10054000F094F7F8F094C701B6010E94A4081F9236
:100550001F921F922FEF2F93A12CB12C650114E64F
:10056000E12EF12C00E010E020E030E0A9010E9433
:10057000060670931D0160931C01C9CE8091020193
:10058000882381F080912E0190912F01A09130015C
:10059000B09131010197A109B10984369105A105F6
:1005A000B10548F410921F0110921E0110921D0116
:1005B00010921C01B0CE8FEF90E090931F018093BA
:1005C0001E0190931D0180931C01A5CE6B3F8FEF00
:1005D00078070CF062C080912E0190912F01A091BC
:1005E0003001B09131018093220190932301A093B7
:1005F0002401B093250110921B0110921A01072EBD
:10060000000C880B990B0E94DC086B017C01609147
:10061000000170910101072E000C880B990B0E94BC
:10062000DC084B015C0120E030E048EC52E4C701FB
:10063000B6010E943208A50194010E94FE099B01A7
:10064000AC01C701B6010E9491096B017C0120E059
:1006500030E0A9010E948C09181624F0F7FAF094F2
:10066000F7F8F094C701B6010E94A4081F921F92E8
:100670001F922FEF2F93A12CB12C650114E6E12ED0
:10068000F12C00E010E020E030E0A9010E94060615
:100690007093190160931801B5CE809102018823EF
:1006A00081F080912E0190912F01A0913001B091A5
:1006B00031010197A109B10984369105A105B10560
:1006C00048F410921B0110921A0110921901109215
:1006D00018019CCE8FEF90E090931B0180931A013C
:1006E000909319018093180191CE8D3C09F479C043
:1006F00008F464C0109217011092160110922101A3
:100700001092200110921B0110921A0110921901EF
:1007100010921801A6CE823D09F486C050F4803DA7
:1007200009F479C0813D09F09CCE81E080930201FB
:1007300076C0843D09F47FC008F479C08F3F09F08A
:1007400090CE109217011092160110922101109272
:10075000200190913501899FC001112490931F01C0
:1007600080931E0190931D0180931C0131C0109253
:1007700017011092160181E080932101109220014F
:1007800070CE10921701109216011092210181E093
:100790008093200166CE10921701109216011092DC
:1007A0002101109220018FEF90E090931F01809320
:1007B0001E0190931D0180931C0153CE10921701CE
:1007C0001092160110922101109220018FEF90E0FB
:1007D00090931B0180931A01909319018093180143
:1007E00040CE109217011092160110922101109222
:1007F000200110921F0110921E0110921D011092F3
:100800001C012FCE81E090E0909317018093160198
:1008100010922101B3CF10920101109200011092A9
:10082000170110921601F4CF10920201F8CF81E067
:1008300080933501F4CF10923501F1CFFC01918DF9
:10084000228D892F90E0805C9F4F821B91098F73CE
:1008500099270895FC01918D828D981731F0828D32
:10086000E80FF11D858D90E008958FEF9FEF0895BB
:10087000FC01918D828D981761F0A28DAE0FBF2F74
:10088000B11D5D968C91928D9F5F9F73928F90E0CA
:1008900008958FEF9FEF0895FC01538D448D252F10
:1008A00030E0842F90E0821B930B541710F0CF960A
:1008B00008950197089582EA95E0892B49F080E038
:1008C00090E0892B29F00E94A20581110C94000070
:1008D0000895FC01A48DA80FB92FB11DA35ABF4FD5
:1008E0002C91848D90E001968F739927848FA6892F
:1008F000B7892C93A089B1898C91837080648C9383
:10090000938D848D981306C00288F389E02D808131
:100910008F7D80830895CF93DF93EC01888D8823AA
:10092000B9F0AA89BB89E889F9898C9185FD03C052
:10093000808186FD0DC00FB607FCF7CF8C9185FF37
:10094000F2CF808185FFEDCFCE010E946904E9CF0F
:10095000DF91CF910895EF92FF920F931F93CF9362
:10096000DF93EC0181E0888F9B8D8C8D98131AC0EA
:10097000E889F989808185FF15C09FB7F894EE89D1
:10098000FF896083E889F98980818370806480832E
:100990009FBF81E090E0DF91CF911F910F91FF9079
:1009A000EF900895F62E0B8D10E00F5F1F4F0F7321
:1009B0001127E02E8C8D8E110CC00FB607FCFACFDC
:1009C000E889F989808185FFF5CFCE010E9469040D
:1009D000F1CFEB8DEC0FFD2FF11DE35AFF4FF082AD
:1009E0009FB7F8940B8FEA89FB8980818062CFCF13
:1009F000CF92DF92EF92FF921F93CF93DF93EC01A0
:100A00006A017B01122F60E874E88EE190E0A70193
:100A100096010E94930B21503109410951095695C5
:100A2000479537952795E889F98982E080832115D4
:100A300080E1380798F0E889F989108260E472E46F
:100A40008FE090E0A70196010E94930B215031099D
:100A5000410951095695479537952795EC85FD85B0
:100A60003083EE85FF852083188EEC89FD89108305
:100A7000EA89FB89808188698083EA89FB89808192
:100A80008F7D8083DF91CF911F91FF90EF90DF905A
:100A9000CF9008951F920F920FB60F9211242F93AB
:100AA0008F939F93EF93FF93E0914601F09147015D
:100AB0008081E0914C01F0914D0182FD1BC090813D
:100AC00080914F018F5F8F7320915001821741F009
:100AD000E0914F01F0E0EA5CFE4F958F80934F016B
:100AE000FF91EF919F918F912F910F900FBE0F90DB
:100AF0001F9018958081F4CF1F920F920FB60F921E
:100B000011242F933F934F935F936F937F938F9312
:100B10009F93AF93BF93EF93FF9386E391E00E947F
:100B20006904FF91EF91BF91AF919F918F917F9158
:100B30006F915F914F913F912F910F900FBE0F904A
:100B40001F90189586E391E00E941E0421E0892BF6
:100B500009F420E0822F0895E6E3F1E01382128287
:100B600088EE93E0A0E0B0E084839583A683B7830A
:100B700087E091E09183808385EC90E0958784877E
:100B800084EC90E09787868780EC90E0918B808B57
:100B900081EC90E0938B828B82EC90E0958B848B40
:100BA00086EC90E0978B868B118E128E138E148EAE
:100BB0000895AF92BF92CF92DF92EF92FF920F9380
:100BC0001F93CF93DF936C017B018B01040F151FE3
:100BD000EB015E01AE18BF08C017D10759F069914B
:100BE000D601ED91FC910190F081E02DC6010995AF
:100BF000892B79F7C501DF91CF911F910F91FF905C
:100C0000EF90DF90CF90BF90AF9008954F925F929A
:100C10006F927F92AF92BF92CF92DF92EF92FF924C
:100C20000F931F93CF93DF93CDB7DEB729013A011E
:100C30009B01AC01241935094609570989899A890C
:100C4000AB89BC89BC01CD016A197B098C099D095E
:100C50000E94830BA80197012419350946095709F9
:100C60000E94B50BCA01B9016A0D7B1D8C1D9D1D2B
:100C7000DF91CF911F910F91FF90EF90DF90CF9078
:100C8000BF90AF907F906F905F904F9008950895C0
:100C90000E94AD060E9447060E94CD00CBE5D4E03D
:100CA0000E94D6002097E1F30E945B04F9CF1F92C7
:100CB0000F920FB60F9211242F933F938F939F9310
:100CC000AF93BF938091D8019091D901A091DA019F
:100CD000B091DB013091D70126E0230F2D3768F169
:100CE00029E8230F0396A11DB11D2093D7018093FE
:100CF000D8019093D901A093DA01B093DB018091E0
:100D0000D3019091D401A091D501B091D601019663
:100D1000A11DB11D8093D3019093D401A093D5015F
:100D2000B093D601BF91AF919F918F913F912F9139
:100D30000F900FBE0F901F9018950296A11DB11D28
:100D4000D4CF2FB7F8946091D8017091D9018091D8
:100D5000DA019091DB012FBF0895789484B5836008
:100D600084BD85B5836085BDEEE6F0E0808181605D
:100D70008083E1E8F0E082E080838081816080838D
:100D8000E0E8F0E0808181608083E1EBF0E0808149
:100D900084608083E0EBF0E080818160808386E87E
:100DA00080937A001092C10008951F93CF93DF9330
:100DB000182FEB0161E00E945B07209739F460E097
:100DC000812FDF91CF911F910C949707CF3FD105D1
:100DD00011F461E0F5CFE12FF0E0E651FF4FE4912F
:100DE000E43031F140F4E230B1F0E330E1F0C0380A
:100DF000D1057CF7E4CFE83029F1E93059F1E5304D
:100E0000B1F780918000806280938000D0938B0046
:100E1000C0938A0004C084B5806884BDC7BDDF91DB
:100E2000CF911F91089584B5806284BDC8BDF7CF6E
:100E300080918000806880938000D0938900C09367
:100E40008800EDCF8091B00080688093B000C0939F
:100E5000B300E5CF8091B00080628093B000C09372
:100E6000B400DDCF843081F028F48230E9F08330A3
:100E7000F9F00895883071F0893091F08530B9F437
:100E8000809180008F7D03C0809180008F77809358
:100E9000800008958091B0008F778093B00008950E
:100EA0008091B0008F7DF9CF84B58F7784BD089590
:100EB00084B58F7DFBCFCF93DF9390E0FC01EF5F94
:100EC000FE4F2491885E9E4FFC0184918823C9F0D7
:100ED00090E0880F991FFC01E75CFE4FA591B4914B
:100EE000FC01E15DFE4FC591D49161110DC09FB72A
:100EF000F8948C91209582238C93888128232883D1
:100F00009FBFDF91CF910895623051F49FB7F8945D
:100F10003C91822F809583238C93E8812E2BEFCFF9
:100F20008FB7F894EC912E2B2C938FBFEACF1F93A1
:100F3000CF93DF93282F30E0F901E651FF4F8491E2
:100F4000F901EF5FFE4FD491F901E85EFE4FC491C5
:100F5000CC23A9F0162F81110E943207EC2FF0E06C
:100F6000EE0FFF1FE15DFE4FA591B4918FB7F8948E
:100F7000EC91111108C0D095DE23DC938FBFDF9177
:100F8000CF911F910895DE2BF8CF5058BB27AA2789
:100F90000E94DD070C9452090E94440938F00E9417
:100FA0004B0920F039F49F3F19F426F40C944109C1
:100FB0000EF4E095E7FB0C943B09E92F0E946309CE
:100FC00058F3BA17620773078407950720F079F47E
:100FD000A6F50C9485090EF4E0950B2EBA2FA02DE2
:100FE0000B01B90190010C01CA01A0011124FF27D6
:100FF000591B99F0593F50F4503E68F11A16F040D1
:10100000A22F232F342F4427585FF3CF46953795CF
:101010002795A795F0405395C9F77EF41F16BA0B94
:10102000620B730B840BBAF09150A1F0FF0FBB1F42
:10103000661F771F881FC2F70EC0BA0F621F731F8B
:10104000841F48F4879577956795B795F7959E3FE8
:1010500008F0B0CF9395880F08F09927EE0F979579
:10106000879508950E9446080C9452090E944B09E6
:1010700058F00E94440940F029F45F3F29F00C9495
:101080003B0951110C9486090C9441090E94630993
:1010900068F39923B1F3552391F3951B550BBB27A7
:1010A000AA2762177307840738F09F5F5F4F220FEC
:1010B000331F441FAA1FA9F335D00E2E3AF0E0E8E3
:1010C00032D091505040E695001CCAF72BD0FE2F2D
:1010D00029D0660F771F881FBB1F261737074807C1
:1010E000AB07B0E809F0BB0B802DBF01FF27935879
:1010F0005F4F3AF09E3F510578F00C943B090C94F9
:1011000086095F3FE4F3983ED4F38695779567951B
:10111000B795F7959F5FC9F7880F911D96958795AD
:1011200097F90895E1E0660F771F881FBB1F6217CC
:1011300073078407BA0720F0621B730B840BBA0B8A
:10114000EE1F88F7E09508950E94AB086894B111EE
:101150000C94860908950E946B0988F09F5798F0B7
:10116000B92F9927B751B0F0E1F0660F771F881FAC
:10117000991F1AF0BA95C9F714C0B13091F00E94C6
:101180008509B1E008950C948509672F782F882789
:10119000B85F39F0B93FCCF3869577956795B395ED
:1011A000D9F73EF490958095709561957F4F8F4F5C
:1011B0009F4F0895E89409C097FB3EF49095809561
:1011C000709561957F4F8F4F9F4F9923A9F0F92F0D
:1011D00096E9BB279395F695879577956795B7958B
:1011E000F111F8CFFAF4BB0F11F460FF1BC06F5F71
:1011F0007F4F8F4F9F4F16C0882311F096E911C083
:10120000772321F09EE8872F762F05C0662371F0A3
:1012100096E8862F70E060E02AF09A95660F771FB7
:10122000881FDAF7880F9695879597F90895990F93
:101230000008550FAA0BE0E8FEEF16161706E807A0
:10124000F907C0F012161306E407F50798F0621BC1
:10125000730B840B950B39F40A2661F0232B242B96
:10126000252B21F408950A2609F4A140A6958FEFB5
:10127000811D811D089597F99F6780E870E060E007
:1012800008959FEF80EC089500240A94161617061F
:1012900018060906089500240A9412161306140667
:1012A00005060895092E0394000C11F4882352F0CA
:1012B000BB0F40F4BF2B11F460FF04C06F5F7F4F82
:1012C0008F4F9F4F089557FD9058440F551F59F069
:1012D0005F3F71F04795880F97FB991F61F09F3F23
:1012E00079F087950895121613061406551FF2CF4C
:1012F0004695F1DF08C0161617061806991FF1CF9C
:1013000086957105610508940895E894BB276627C2
:101310007727CB0197F908950E94170908F48FEFFA
:1013200008950E94A4090C9452090E94440938F0BF
:101330000E944B0920F0952311F00C943B090C946A
:10134000410911240C9486090E94630970F3959F4A
:10135000C1F3950F50E0551F629FF001729FBB27AC
:10136000F00DB11D639FAA27F00DB11DAA1F649F48
:101370006627B00DA11D661F829F2227B00DA11DFB
:10138000621F739FB00DA11D621F839FA00D611D81
:10139000221F749F3327A00D611D231F849F600DA2
:1013A000211D822F762F6A2F11249F5750409AF0CB
:1013B000F1F088234AF0EE0FFF1FBB1F661F771F57
:1013C000881F91505040A9F79E3F510580F00C9422
:1013D0003B090C9486095F3FE4F3983ED4F386956D
:1013E00077956795B795F795E7959F5FC1F7FE2BC2
:1013F000880F911D9695879597F90895FA01EE0F3C
:10140000FF1F309621053105A1F16115710561F4C9
:101410008038BFE39B0749F168949038810561F0FB
:101420008038BFEF9B0741F099234AF5FF3FE10564
:101430003105210519F1E8940894E795D901AA230B
:1014400029F4AB2FBE2FF85FD0F310C0FF5F70F40C
:10145000A695E0F7F73950F019F0FF3A38F49F7786
:101460009F930DD00F9007FC9058089546F00C9470
:10147000410960E070E080E89FE308954FE79F77BF
:101480005F934F933F932F930E94F90A2F913F91BF
:101490004F915F910E9491090C94560A29F416F01D
:1014A0000C943B090C9485090C9441090E946B092A
:1014B000A8F39638A0F707F80F92E8942BE33AEADE
:1014C00048EB5FE70E94A7090F920F920F924DB76A
:1014D0005EB70F920E94410BE8E6F0E00E94880A96
:1014E0004F915F91EF91FF91E595EE1FFF1F49F03E
:1014F000FE57E0684427EE0F441FFA95E1F7419547
:10150000550B0E94BB0A0F9007FE0C94AF0A08957A
:10151000DF93CF931F930F93FF92EF92DF927B01A4
:101520008C01689406C0DA2EEF010E94A409FE0126
:10153000E894A5912591359145915591A6F3EF0138
:101540000E94DD07FE019701A801DA9469F7DF9098
:10155000EF90FF900F911F91CF91DF9108959B0124
:10156000AC0160E070E080E89FE30C9432080C94DA
:101570003B090C94750B0E946B09D8F39923C9F3AE
:10158000940F511DA3F39150504094F059F08823CB
:1015900032F0660F771F881F91505040C1F79E3F71
:1015A00051052CF7880F911D9695879597F9089509
:1015B0005F3FACF0983E9CF0BB278695779567958A
:1015C000B79508F4B1609395C1F7BB0F58F711F4C4
:1015D00060FFE8CF6F5F7F4F8F4F9F4FE3CF0C943B
:1015E000860916F00C94750B0C94410968940C94C0
:1015F0003B090E946B09A8F39923C1F3AEF3DF9373
:10160000CF931F930F93FF92C92FDD2788232AF0D2
:101610002197660F771F881FDAF720E030E040E857
:101620005FEB9FE3883920F0803E38F021968F777A
:101630000E94C607E0E9F0E004C00E94C607EDEB97
:10164000F0E00E94880A8B01BE01EC01FB2E6F576F
:1016500071097595771F880B990B0E94DC0828E1AA
:1016600032E741E35FE30E94A409AF2D9801AE0188
:10167000FF900F911F91CF91DF910E94DD070C9495
:101680005209FA01DC01AA0FBB1F9B01AC01BF5735
:1016900028F4222733274427507820C0B75190F4EC
:1016A000AB2F0024469537952795011CA395D2F3BF
:1016B000002071F0220F331F441FB395DAF30ED0D0
:1016C0000C94C50761307105A0E88A07B94630F46B
:1016D0009B01AC016627772788279078309621F008
:1016E000208331834283538308959F3F31F091508B
:1016F00020F4879577956795B795880F911D9695F6
:10170000879597F90895DB018F939F930E94D40BDF
:10171000BF91AF91A29F800D911DA39F900DB29F8D
:10172000900D11240895A1E21A2EAA1BBB1BFD01E6
:101730000DC0AA1FBB1FEE1FFF1FA217B307E407B0
:10174000F50720F0A21BB30BE40BF50B661F771F08
:10175000881F991F1A9469F76095709580959095E8
:101760009B01AC01BD01CF010895052E97FB1EF42E
:1017700000940E94CC0B57FD07D00E94930B07FCEE
:1017800003D04EF40C94CC0B509540953095219598
:101790003F4F4F4F5F4F089590958095709561959D
:1017A0007F4F8F4F9F4F08950E94E50BA59F900D8F
:1017B000B49F900DA49F800D911D11240895EE0FEC
:1017C000FF1F0590F491E02D0994A29FB001B39FF3
:1017D000C001A39F700D811D1124911DB29F700D3A
:0C17E000811D1124911D0895F894FFCF85
:1017EC0001000100000000AB04D9054C048B041E61
:0617FC000438042A040079
:00000001FF
