:020000040000FA
:100000000C945D000C9485000C9485000C94850084
:100010000C9485000C9485000C9485000C9485004C
:100020000C9485000C9485000C9485000C9485003C
:100030000C9485000C9485000C9485000C9485002C
:100040000C9494010C9485000C9404020C94DE0131
:100050000C9485000C9485000C9485000C9485000C
:100060000C9485000C9485000000000025002800F9
:100070002B00040404040404040402020202020229
:1000800003030303030302020301020408102040D8
:100090008001020408102001020408102040804062
:1000A0000000000900030200000405080000000031
:1000B0000000000000000000EC0211241FBECFEF82
:1000C000D8E0DEBFCDBF11E0A0E0B1E0E2E4F6E0B1
:1000D00002C005900D92A231B107D9F721E0A2E14B
:1000E000B1E001C01D92A83BB207E1F710E0CDE5F9
:1000F000D0E004C02197FE010E941903CC35D1073E
:10010000C9F70E9436020C941F030C940000AF92B2
:10011000BF92CF92DF92EF92FF920F931F93CF93F4
:10012000DF936C017B018B01040F151FEB015E0156
:10013000AE18BF08C017D10759F06991D601ED91EB
:10014000FC910190F081E02DC6010995892B79F78A
:10015000C501DF91CF911F910F91FF90EF90DF903C
:10016000CF90BF90AF900895FC01538D448D252F03
:1001700030E0842F90E0821B930B541710F0CF9641
:10018000089501970895FC01918D828D981761F073
:10019000A28DAE0FBF2FB11D5D968C91928D9F5F8A
:1001A0009F73928F90E008958FEF9FEF0895FC0169
:1001B000918D828D981731F0828DE80FF11D858D1C
:1001C00090E008958FEF9FEF0895FC01918D228DAF
:1001D000892F90E0805C9F4F821B91098F73992734
:1001E000089582E191E00E94E50021E0892B09F465
:1001F00020E0822F089580E090E0892B29F00E9472
:10020000F10081110C9400000895FC01A48DA80F49
:10021000B92FB11DA35ABF4F2C91848D90E0019648
:100220008F739927848FA689B7892C93A089B18968
:100230008C91837080648C93938D848D981306C009
:100240000288F389E02D80818F7D80830895EF926D
:10025000FF920F931F93CF93DF93EC0181E0888F80
:100260009B8D8C8D98131AC0E889F989808185FF50
:1002700015C09FB7F894EE89FF896083E889F989F2
:1002800080818370806480839FBF81E090E0DF91F4
:10029000CF911F910F91FF90EF900895F62E0B8D47
:1002A00010E00F5F1F4F0F731127E02E8C8D8E1102
:1002B0000CC00FB607FCFACFE889F989808185FF69
:1002C000F5CFCE010E940501F1CFEB8DEC0FFD2F94
:1002D000F11DE35AFF4FF0829FB7F8940B8FEA8924
:1002E000FB8980818062CFCFCF93DF93EC01888D33
:1002F0008823B9F0AA89BB89E889F9898C9185FDA1
:1003000003C0808186FD0DC00FB607FCF7CF8C912E
:1003100085FFF2CF808185FFEDCFCE010E940501E0
:10032000E9CFDF91CF9108951F920F920FB60F92F0
:1003300011242F933F938F939F93AF93BF938091FB
:10034000B4019091B501A091B601B091B70130917F
:10035000B30126E0230F2D3768F129E8230F039618
:10036000A11DB11D2093B3018093B4019093B501F9
:10037000A093B601B093B7018091AF019091B00105
:10038000A091B101B091B2010196A11DB11D809360
:10039000AF019093B001A093B101B093B201BF91AE
:1003A000AF919F918F913F912F910F900FBE0F9022
:1003B0001F9018950296A11DB11DD4CF1F920F92C8
:1003C0000FB60F9211242F933F934F935F936F9328
:1003D0007F938F939F93AF93BF93EF93FF9382E1AC
:1003E00091E00E940501FF91EF91BF91AF919F9124
:1003F0008F917F916F915F914F913F912F910F90CE
:100400000FBE0F901F9018951F920F920FB60F926C
:1004100011242F938F939F93EF93FF93E0912201E9
:10042000F09123018081E0912801F091290182FD62
:100430001BC0908180912B018F5F8F7320912C01C5
:10044000821741F0E0912B01F0E0EE5EFE4F958FB8
:1004500080932B01FF91EF919F918F912F910F909E
:100460000FBE0F901F9018958081F4CF789484B5BB
:10047000836084BD85B5836085BD80916E00816099
:1004800080936E0092E09093810080918100816062
:1004900080938100809180008160809380008091B2
:1004A000B10084608093B1008091B000816080933E
:1004B000B00086E880937A001092C100E09122019A
:1004C000F09123019083E0911E01F0911F011082B1
:1004D000E0912001F091210187E6808310922A01AA
:1004E000E0912601F091270186E08083E0912401CC
:1004F000F0912501808188698083E0912401F09149
:10050000250180818F7D808309EA10E092E9E92E40
:1005100090E0F92E2BE7C22E20E0D22EC0E0D0E0F2
:100520008FB7F8944091B4015091B5016091B60134
:100530007091B7018FBF82E191E00E94E500892BA5
:10054000F9F0F8018491F7019491F60124912223A6
:10055000B9F0882339F0843041F1E8F48230A9F110
:100560008330B9F1E22FF0E0EE0FFF1FE859FF4FA3
:10057000A591B4918FB7F8942C91922B9C938FBF37
:10058000209709F4CDCF0E94F100882309F4C8CF49
:100590000E940000C5CF883071F0893091F085301D
:1005A00009F7809180008F7D03C0809180008F7754
:1005B00080938000D7CF8091B0008F778093B00078
:1005C000D1CF8091B0008F7DF9CF84B58F7784BD76
:1005D000C9CF84B58F7DFBCFE2E1F1E013821282B7
:1005E00088EE93E0A0E0B0E084839583A683B78390
:1005F00084E091E09183808385EC90E09587848707
:1006000084EC90E09787868780EC90E0918B808BDC
:1006100081EC90E0938B828B82EC90E0958B848BC5
:1006200086EC90E0978B868B118E128E138E148E33
:100630000895EE0FFF1F0590F491E02D0994F894B2
:10064000FFCF0000000027018700B4007401E5001F
:04065000C300D7000C
:107E8000112424B614BE80E079D021FEEBC08EE030
:107E900075D0E0ECF0E0AFE7BFEF4899FECF9096E9
:107EA000489BFDCFB4831197F1F7B2E0B083B8E1FE
:107EB000B18352D0C82F823569F466D0E0E0FEE786
:107EC000A89583E093D091D0E058F109C8F786E7F0
:107ED0003CD0EFCF8D7FD9F44CD0D82FA0E0B1E0CB
:107EE0003BD08D93DA13FCCFA0E0B1E04DD0C111AF
:107EF0000CC0F2BDE1BD8D9180BDFA9AF99A319620
:107F0000F999FECFD150A9F7E2CF48D0E0CFC330E6
:107F100041F42FD0C82F38D0859117D0C150E1F748
:107F2000D6CFC13061F425D0C82F2ED0F2BDE1BD2F
:107F3000F89A80B50AD03196C150C1F7C8CFC13583
:107F400011F488E01BD020D0C2CF9091C00095FFE3
:107F5000FCCF8093C60008952D9A259A8091C00089
:107F600087FFFCCF84FD13C0A8958091C6002D9893
:107F70000895F2DFE82FF0DFF82FEECF98E190932D
:107F80006000809360000895E7DF803219F088E098
:107F9000F5DFFFCF80EAD9CFFB01DC01E07870E8A4
:107FA0007A0F9F01E0388EE7F80728F5309629F41C
:107FB0008FE38D938FEC8C93119790E045915D91B9
:107FC00045139160A713FACFF901A058B10990FFAA
:107FD00012C083E00BD081E00D901D9007D0329647
:107FE000A713FACFF90185E001D081E187BFE895B9
:107FF00017B610FCFDCF112408950319CDCFE7402B
:00000001FF
