:100000000C945D000C9485000C9485000C94850084
:100010000C9485000C9485000C9485000C9485004C
:100020000C9485000C9485000C9485000C9485003C
:100030000C9485000C9485000C9485000C9485002C
:100040000C948C020C9485000C94C0010C94F20169
:100050000C9485000C9485000C9485000C9485000C
:100060000C9485000C948500000000090003020038
:10007000000405080000000000000000000000016E
:10008000020408102040800102040810200102042C
:100090000810204080400404040404040404020204
:1000A000020202020303030303030202030000002F
:1000B00000250028002B0000220211241FBECFEFD4
:1000C000D8E0DEBFCDBF11E0A0E0B1E0EEEFF6E09A
:1000D00002C005900D92A231B107D9F721E0A2E14B
:1000E000B1E001C01D92A83BB207E1F710E0CDE5F9
:1000F000D0E004C02197FE010E947703CC35D107E0
:10010000C9F70E947D020C947D030C94000026E048
:1001100040E855E260E070E082E191E00C946E010D
:1001200061E080E00C942703FC01918D228D892FE2
:1001300090E0805C9F4F821B91098F7399270895EF
:10014000FC01918D828D981731F0828DE80FF11DA1
:10015000858D90E008958FEF9FEF0895FC01918DBC
:10016000828D981761F0A28DAE0FBF2FB11D5D96E5
:100170008C91928D9F5F9F73928F90E008958FEF87
:100180009FEF0895FC01538D448D252F30E0842F7F
:1001900090E0821B930B541710F0CF9608950197AF
:1001A000089588E192E0892B49F080E090E0892B66
:1001B00029F00E94180281110C9400000895FC019E
:1001C000A48DA80FB92FB11DA35ABF4F2C91848DB8
:1001D00090E001968F739927848FA689B7892C9315
:1001E000A089B1898C91837080648C93938D848D68
:1001F000981306C00288F389E02D80818F7D80836B
:100200000895CF93DF93EC01888D8823B9F0AA89F4
:10021000BB89E889F9898C9185FD03C0808186FDC1
:100220000DC00FB607FCF7CF8C9185FFF2CF808110
:1002300085FFEDCFCE010E94DF00E9CFDF91CF91A6
:100240000895EF92FF920F931F93CF93DF93EC01EA
:1002500081E0888F9B8D8C8D98131AC0E889F9896D
:10026000808185FF15C09FB7F894EE89FF89608370
:10027000E889F98980818370806480839FBF81E0F1
:1002800090E0DF91CF911F910F91FF90EF90089533
:10029000F62E0B8D10E00F5F1F4F0F731127E02E0E
:1002A0008C8D8E110CC00FB607FCFACFE889F98946
:1002B000808185FFF5CFCE010E94DF00F1CFEB8D6D
:1002C000EC0FFD2FF11DE35AFF4FF0829FB7F8941A
:1002D0000B8FEA89FB8980818062CFCFCF92DF923A
:1002E000EF92FF921F93CF93DF93EC016A017B01A2
:1002F000122F60E874E88EE190E0A70196010E9459
:1003000055032150310941095109569547953795B3
:100310002795E889F98982E08083211580E13807F3
:1003200098F0E889F989108260E472E48FE090E047
:10033000A70196010E945503215031094109510935
:100340005695479537952795EC85FD853083EE8545
:10035000FF852083188EEC89FD891083EA89FB894B
:10036000808188698083EA89FB8980818F7D808391
:10037000DF91CF911F91FF90EF90DF90CF90089584
:100380001F920F920FB60F9211242F938F939F936A
:10039000EF93FF93E0912201F09123018081E0919E
:1003A0002801F091290182FD1BC0908180912B01D1
:1003B0008F5F8F7320912C01821741F0E0912B0108
:1003C000F0E0EE5EFE4F958F80932B01FF91EF9151
:1003D0009F918F912F910F900FBE0F901F901895A6
:1003E0008081F4CF1F920F920FB60F9211242F939A
:1003F0003F934F935F936F937F938F939F93AF93AD
:10040000BF93EF93FF9382E191E00E94DF00FF91A1
:10041000EF91BF91AF919F918F917F916F915F917C
:100420004F913F912F910F900FBE0F901F901895F5
:1004300082E191E00E94940021E0892B09F420E000
:10044000822F0895E2E1F1E01382128288EE93E0B8
:10045000A0E0B0E084839583A683B78384E091E035
:100460009183808385EC90E09587848784EC90E08D
:100470009787868780EC90E0918B808B81EC90E071
:10048000938B828B82EC90E0958B848B86EC90E052
:10049000978B868B118E128E138E148E0895AF92C9
:1004A000BF92CF92DF92EF92FF920F931F93CF9361
:1004B000DF936C017B018B01040F151FEB015E01C3
:1004C000AE18BF08C017D10759F06991D601ED9158
:1004D000FC910190F081E02DC6010995892B79F7F7
:1004E000C501DF91CF911F910F91FF90EF90DF90A9
:1004F000CF90BF90AF90089508950E94D6020E94B9
:100500007C020E948700C1EDD0E00E9490002097FD
:10051000E1F30E94D100F9CF1F920F920FB60F9214
:1005200011242F933F938F939F93AF93BF93809109
:10053000B4019091B501A091B601B091B70130918D
:10054000B30126E0230F2D3768F129E8230F039626
:10055000A11DB11D2093B3018093B4019093B50107
:10056000A093B601B093B7018091AF019091B00113
:10057000A091B101B091B2010196A11DB11D80936E
:10058000AF019093B001A093B101B093B201BF91BC
:10059000AF919F918F913F912F910F900FBE0F9030
:1005A0001F9018950296A11DB11DD4CF789484B5E3
:1005B000836084BD85B5836085BDEEE6F0E0808113
:1005C00081608083E1E8F0E082E080838081816067
:1005D0008083E0E8F0E0808181608083E1EBF0E0FF
:1005E000808184608083E0EBF0E0808181608083A3
:1005F00086E880937A001092C1000895843081F0DB
:1006000028F48230E9F08330F9F00895883071F0F1
:10061000893091F08530B9F4809180008F7D03C0DE
:10062000809180008F778093800008958091B00042
:100630008F778093B00008958091B0008F7DF9CFBF
:1006400084B58F7784BD089584B58F7DFBCF1F93CC
:10065000CF93DF93282F30E0F901E859FF4F8491C1
:10066000F901E158FF4FD491F901EA56FF4FC491C7
:10067000CC23A9F0162F81110E94FE02EC2FF0E08E
:10068000EE0FFF1FE355FF4FA591B4918FB7F8947C
:10069000EC91111108C0D095DE23DC938FBFDF9160
:1006A000CF911F910895DE2BF8CFA1E21A2EAA1B3D
:1006B000BB1BFD010DC0AA1FBB1FEE1FFF1FA21712
:1006C000B307E407F50720F0A21BB30BE40BF50B0F
:1006D000661F771F881F991F1A9469F76095709598
:1006E000809590959B01AC01BD01CF010895EE0F5F
:0E06F000FF1F0590F491E02D0994F894FFCFC0
:1006FE000000000021014F02C20001019400AE0073
:02070E00A00049
:00000001FF
