:020000040000FA
:100000000C9462000C948A000C948A000C948A0070
:100010000C948A000C948A000C948A000C948A0038
:100020000C948A000C948A000C948A000C948A0028
:100030000C948A000C948A000C948A000C948A0018
:100040000C9423020C948A000C94BD040C94EF04CD
:100050000C948A000C948A000C948A000C948A00F8
:100060000C948A000C948A0000000009000302002E
:10007000000405080000000000000000000000016E
:10008000020408102040800102040810200102042C
:100090000810204080400404040404040404020204
:1000A000020202020303030303030202030000002F
:1000B00000250028002B0000000000240027002A53
:1000C00000001F0511241FBECFEFD8E0DEBFCDBF5B
:1000D00011E0A0E0B1E0EAE7FCE002C005900D927B
:1000E000AA31B107D9F721E0AAE1B1E001C01D9220
:1000F000A83CB207E1F710E0C2E6D0E004C02197C7
:10010000FE010E942606C136D107C9F70E94BB0531
:100110000C943B060C94000026E040E855E260E0B9
:1001200070E08BE291E00C946B04AF92BF92CF929F
:10013000DF92EF92FF920F931F930E946D026093E4
:100140001E0170931F0180932001909321018BE287
:1001500091E00E94910340911E0150911F01609116
:10016000200170912101892B09F44CC140931A019F
:1001700050931B0160931C0170931D018BE291E071
:100180000E94AB0380930601853608F04EC0809331
:1001900005019EEF980F903388F582E090E09093F0
:1001A000030180930201809102019091030181304B
:1001B000910509F482C008F471C08230910509F4F8
:1001C000A0C0039709F473C08091000190910101D0
:1001D0008130910509F4CBC008F4B3C08230910599
:1001E00009F4E5C0039709F4BCC01F910F91FF907B
:1001F000EF90DF90CF90BF90AF9008959DEC980F57
:10020000913318F481E090E0CACF813011F082334D
:1002100051F680910701882329F010920301109272
:100220000201C1CF83E090E0BACF682F70E090E088
:1002300080E01F921F921F9224E62F93A12CB12CD5
:10024000650118ECE12EF12C00E010E024E630E02E
:1002500040E050E00E947905609304018EEF860F24
:100260000F900F900F900F90803338F482E090E061
:10027000909301018093000196CF8DEC860F81331E
:1002800018F481E090E0F4CF613019F0623309F0A6
:100290008ACF109201011092000185CF61E089E0C0
:1002A0000E94630361E08AE00E9463038DCF60E0F7
:1002B00089E00E94630360E0F6CF6091050170E081
:1002C00090E080E01F921F921F922FEF2F93A12C9E
:1002D000B12C650114E6E12EF12C00E010E022E3E0
:1002E00030E040E050E00E94790589E00E94A102E0
:1002F00060E08AE00E9463030F900F900F900F90D0
:1003000063CF60E089E00E9463036091050170E0C3
:1003100090E080E01F921F921F922FEF2F93A12C4D
:10032000B12C650112E3E12EF12C00E010E024E68F
:1003300030E040E050E00E9479058AE00E94A1028E
:10034000DBCF61E085E00E94630361E086E01F91FE
:100350000F91FF90EF90DF90CF90BF90AF900C94F3
:10036000630360E085E00E94630360E0EFCF60918B
:10037000040170E090E080E01F921F921F922FEF27
:100380002F93A12CB12C650114E6E12EF12C00E095
:1003900010E022E330E040E050E00E94790585E083
:1003A0000E94A1020F900F900F900F90DECF60E09F
:1003B00085E00E9463036091040170E090E080E0BA
:1003C0001F921F921F922FEF2F93A12CB12C65012A
:1003D00012E3E12EF12C00E010E024E630E040E0F2
:1003E00050E00E9479050F900F900F900F9086E0DB
:1003F0001F910F91FF90EF90DF90CF90BF90AF9043
:100400000C94A10280911A0190911B01A0911C01F2
:10041000B0911D01481B590B6A0B7B0B45365105EA
:100420006105710508F4E1CE60E085E00E94630398
:1004300060E086E00E94630360E089E00E9463035D
:1004400060E08AE084CF1F920F920FB60F921124C2
:100450002F933F938F939F93AF93BF9380912701E7
:1004600090912801A0912901B0912A013091260193
:1004700026E0230F2D3768F129E8230F0396A11DED
:10048000B11D209326018093270190932801A0930A
:100490002901B0932A018091220190912301A0911A
:1004A0002401B09125010196A11DB11D8093220167
:1004B00090932301A0932401B0932501BF91AF91A4
:1004C0009F918F913F912F910F900FBE0F901F9092
:1004D00018950296A11DB11DD4CF2FB7F894609145
:1004E0002701709128018091290190912A012FBF45
:1004F0000895789484B5836084BD85B5836085BD97
:10050000EEE6F0E0808181608083E1E8F0E082E067
:100510008083808181608083E0E8F0E08081816079
:100520008083E1EBF0E0808184608083E0EBF0E0A9
:1005300080818160808386E880937A001092C10078
:1005400008951F93CF93DF93182FEB0161E00E9472
:100550002703209739F460E0812FDF91CF911F911D
:100560000C946303CF3FD10511F461E0F5CFE12F87
:10057000F0E0E859FF4FE491E43031F140F4E2302B
:10058000B1F0E330E1F0C038D1057CF7E4CFE830DA
:1005900029F1E93059F1E530B1F7809180008062AE
:1005A00080938000D0938B00C0938A0004C084B5F0
:1005B000806884BDC7BDDF91CF911F91089584B538
:1005C000806284BDC8BDF7CF809180008068809331
:1005D0008000D0938900C0938800EDCF8091B00057
:1005E00080688093B000C093B300E5CF8091B000E5
:1005F00080628093B000C093B400DDCF843081F07E
:1006000028F48230E9F08330F9F00895883071F0F1
:10061000893091F08530B9F4809180008F7D03C0DE
:10062000809180008F778093800008958091B00042
:100630008F778093B00008958091B0008F7DF9CFBF
:1006400084B58F7784BD089584B58F7DFBCFCF931C
:10065000DF9390E0FC01E158FF4F24918A569F4FB1
:10066000FC0184918823C9F090E0880F991FFC0158
:10067000E954FF4FA591B491FC01E355FF4FC5919B
:10068000D49161110DC09FB7F8948C91209582236D
:100690008C938881282328839FBFDF91CF91089571
:1006A000623051F49FB7F8943C91822F8095832358
:1006B0008C93E8812E2BEFCF8FB7F894EC912E2BF3
:1006C0002C938FBFEACF1F93CF93DF93282F30E077
:1006D000F901E859FF4F8491F901E158FF4FD49196
:1006E000F901EA56FF4FC491CC23A9F0162F8111CE
:1006F0000E94FE02EC2FF0E0EE0FFF1FE355FF4FCC
:10070000A591B4918FB7F894EC91111108C0D095D0
:10071000DE23DC938FBFDF91CF911F910895DE2BF5
:10072000F8CFFC01918D228D892F90E0805C9F4F46
:10073000821B91098F7399270895FC01918D828DF9
:10074000981731F0828DE80FF11D858D90E00895A6
:100750008FEF9FEF0895FC01918D828D981761F0C6
:10076000A28DAE0FBF2FB11D5D968C91928D9F5FB4
:100770009F73928F90E008958FEF9FEF0895FC0193
:10078000538D448D252F30E0842F90E0821B930BF6
:10079000541710F0CF9608950197089585E195E0DC
:1007A000892B49F080E090E0892B29F00E94150503
:1007B00081110C9400000895FC01A48DA80FB92F9D
:1007C000B11DA35ABF4F2C91848D90E001968F7379
:1007D0009927848FA689B7892C93A089B1898C9198
:1007E000837080648C93938D848D981306C00288E7
:1007F000F389E02D80818F7D80830895CF93DF93EF
:10080000EC01888D8823B9F0AA89BB89E889F98928
:100810008C9185FD03C0808186FD0DC00FB607FC5D
:10082000F7CF8C9185FFF2CF808185FFEDCFCE0190
:100830000E94DC03E9CFDF91CF910895EF92FF9200
:100840000F931F93CF93DF93EC0181E0888F9B8DF3
:100850008C8D98131AC0E889F989808185FF15C0AD
:100860009FB7F894EE89FF896083E889F9898081D0
:100870008370806480839FBF81E090E0DF91CF919F
:100880001F910F91FF90EF900895F62E0B8D10E0C1
:100890000F5F1F4F0F731127E02E8C8D8E110CC030
:1008A0000FB607FCFACFE889F989808185FFF5CF7B
:1008B000CE010E94DC03F1CFEB8DEC0FFD2FF11D7B
:1008C000E35AFF4FF0829FB7F8940B8FEA89FB89B8
:1008D00080818062CFCFCF92DF92EF92FF921F9301
:1008E000CF93DF93EC016A017B01122F60E874E87B
:1008F0008EE190E0A70196010E94DA0521503109AE
:10090000410951095695479537952795E889F98901
:1009100082E08083211580E1380798F0E889F98921
:10092000108260E472E48FE090E0A70196010E94DB
:10093000DA052150310941095109569547953795F6
:100940002795EC85FD853083EE85FF852083188E05
:10095000EC89FD891083EA89FB898081886980831D
:10096000EA89FB8980818F7D8083DF91CF911F9100
:10097000FF90EF90DF90CF9008951F920F920FB6E7
:100980000F9211242F938F939F93EF93FF93E091F6
:100990003B01F0913C018081E0914101F0914201E5
:1009A00082FD1BC09081809144018F5F8F732091E5
:1009B0004501821741F0E0914401F0E0E55DFE4F12
:1009C000958F80934401FF91EF919F918F912F918B
:1009D0000F900FBE0F901F9018958081F4CF1F923B
:1009E0000F920FB60F9211242F933F934F935F9363
:1009F0006F937F938F939F93AF93BF93EF93FF93E7
:100A00008BE291E00E94DC03FF91EF91BF91AF91E7
:100A10009F918F917F916F915F914F913F912F9116
:100A20000F900FBE0F901F9018958BE291E00E94DF
:100A3000910321E0892B09F420E0822F0895EBE255
:100A4000F1E01382128288EE93E0A0E0B0E08483AC
:100A50009583A683B7838CE091E09183808385ECB6
:100A600090E09587848784EC90E09787868780EC78
:100A700090E0918B808B81EC90E0938B828B82EC69
:100A800090E0958B848B86EC90E0978B868B118E13
:100A9000128E138E148E0895AF92BF92CF92DF9272
:100AA000EF92FF920F931F93CF93DF936C017B0123
:100AB0008B01040F151FEB015E01AE18BF08C017B4
:100AC000D10759F06991D601ED91FC910190F08127
:100AD000E02DC6010995892B79F7C501DF91CF91EA
:100AE0001F910F91FF90EF90DF90CF90BF90AF904C
:100AF00008954F925F926F927F92AF92BF92CF9282
:100B0000DF92EF92FF920F931F93CF93DF93CDB7B6
:100B1000DEB729013A019B01AC01241935094609C8
:100B2000570989899A89AB89BC89BC01CD016A19A9
:100B30007B098C099D090E94CA05A8019701241907
:100B40003509460957090E94FC05CA01B9016A0D19
:100B50007B1D8C1D9D1DDF91CF911F910F91FF90EB
:100B6000EF90DF90CF90BF90AF907F906F905F90AD
:100B70004F90089508950E9479020E94BA050E943C
:100B80008C00CEECD3E00E9495002097E1F30E9408
:100B9000CE03F9CFDB018F939F930E941B06BF9179
:100BA000AF91A29F800D911DA39F900DB29F900DBC
:100BB00011240895A1E21A2EAA1BBB1BFD010DC032
:100BC000AA1FBB1FEE1FFF1FA217B307E407F507FD
:100BD00020F0A21BB30BE40BF50B661F771F881FD9
:100BE000991F1A9469F760957095809590959B016F
:100BF000AC01BD01CF010895052E97FB1EF40094B2
:100C00000E94130657FD07D00E94DA0507FC03D0A7
:100C10004EF40C94130650954095309521953F4F16
:100C20004F4F5F4F089590958095709561957F4FD8
:100C30008F4F9F4F08950E942C06A59F900DB49F43
:100C4000900DA49F800D911D11240895EE0FFF1F9C
:100C50000590F491E02D0994A29FB001B39FC001CB
:100C6000A39F700D811D1124911DB29F700D811DD8
:100C70001124911D0895F894FFCF03000300FFFF96
:100C8000FF01000000001E044C05BF03FE0391039A
:040C9000AB039D0312
:107E000001C0B7C0112484B790E89093610010922C
:107E10006100882361F0982F9A70923041F081FFC1
:107E200002C097EF94BF282E80E0C6D0E9C085E05D
:107E30008093810082E08093C00088E18093C1003C
:107E400089E18093C40086E08093C2008EE0B4D0C4
:107E5000259A84E028E13EEF91E03093850020935D
:107E6000840096BBB09BFECF1D9AA8954091C000A0
:107E700047FD02C0815089F793D0813479F490D0C6
:107E8000182FA0D0123811F480E004C088E0113817
:107E900009F083E07ED080E17CD0EECF823419F40B
:107EA00084E198D0F8CF853411F485E0FACF853598
:107EB00041F476D0C82F74D0D82FCC0FDD1F82D0DC
:107EC000EACF863519F484E085D0DECF843691F58B
:107ED00067D066D0F82E64D0D82E00E011E05801AB
:107EE0008FEFA81AB80A5CD0F80180838501FA10D8
:107EF000F6CF68D0F5E4DF1201C0FFCF50E040E0DC
:107F000063E0CE0136D08E01E0E0F1E06F0182E067
:107F1000C80ED11C4081518161E0C8012AD00E5F9A
:107F20001F4FF601FC10F2CF50E040E065E0CE01BB
:107F300020D0B1CF843771F433D032D0F82E30D086
:107F400041D08E01F80185918F0123D0FA94F11070
:107F5000F9CFA1CF853739F435D08EE11AD085E934
:107F600018D084E197CF813509F0A9CF88E024D0DB
:107F7000A6CFFC010A0167BFE895112407B600FCF3
:107F8000FDCF667029F0452B19F481E187BFE89594
:107F900008959091C00095FFFCCF8093C60008958E
:107FA0008091C00087FFFCCF8091C00084FD01C09C
:107FB000A8958091C6000895E0E6F0E098E19083EE
:107FC00080830895EDDF803219F088E0F5DFFFCF80
:107FD00084E1DFCFCF93C82FE3DFC150E9F7CF9122
:027FE000F1CFDF
:027FFE00000879
:00000001FF
