:020000040000FA
:100000000C9462000C948A000C948A000C948A0070
:100010000C948A000C948A000C948A000C948A0038
:100020000C948A000C948A000C948A000C948A0028
:100030000C948A000C948A000C948A000C948A0018
:100040000C9452020C948A000C94C2020C949C02F0
:100050000C948A000C948A000C948A000C948A00F8
:100060000C948A000C948A000000000024002700F1
:100070002A0000000000250028002B0004040404CE
:100080000404040402020202020203030303030342
:10009000020203010204081020408001020408103B
:1000A00020010204081020408040000000090003E5
:1000B000020000040508000000000000000000002D
:1000C0000000870411241FBECFEFD8E0DEBFCDBFF4
:1000D00011E0A0E0B1E0EEE2FAE002C005900D927E
:1000E000A831B107D9F721E0A8E1B1E001C01D9224
:1000F000A63CB207E1F710E0C2E6D0E004C02197C9
:10010000FE010E940F05C136D107C9F70E94F40213
:100110000C9415050C94000090E0FC01E655FF4F8F
:100120002491FC01ED56FF4F3491FC01E458FF4F40
:10013000E491EE23C9F0222339F0243001F1A8F430
:10014000223069F1233079F1F0E0EE0FFF1FEE5815
:10015000FF4FA591B4918FB7F894EC91611126C02F
:1001600030953E233C938FBF0895283071F029309D
:1001700091F0253049F7809180008F7D03C08091F8
:1001800080008F7780938000DFCF8091B0008F77E1
:100190008093B000D9CF8091B0008F7DF9CF84B526
:1001A0008F7784BDD1CF84B58F7DFBCF3E2BDACF47
:1001B000482F50E0FA01ED56FF4F9491FA01E458B0
:1001C000FF4F2491222399F030E0220F331FF901D1
:1001D000E859FF4FA591B491F901EE58FF4F2591D1
:1001E00034912FB7F894EC91E92BEC932FBF611564
:1001F000710519F460E00C948C006F3F710511F4E7
:1002000061E0F9CFFA01E655FF4FE491E43019F1CE
:1002100040F4E230B1F0E330C9F06038710584F7A2
:10022000E9CFE83011F1E93041F1E530B1F78091E3
:10023000800080628093800070938B0060938A00BE
:10024000089584B5806884BD67BD089584B58062D3
:1002500084BD68BD0895809180008068809380008F
:10026000709389006093880008958091B000806841
:100270008093B0006093B30008958091B0008062D5
:100280008093B0006093B4000895AF92BF92CF9274
:10029000DF92EF92FF920F931F93CF93DF936C0146
:1002A0007B018B01040F151FEB015E01AE18BF0827
:1002B000C017D10759F06991D601ED91FC910190D9
:1002C000F081E02DC6010995892B79F7C501DF91F1
:1002D000CF911F910F91FF90EF90DF90CF90BF9043
:1002E000AF900895FC01538D448D252F30E0842F6D
:1002F00090E0821B930B541710F0CF96089501974E
:100300000895FC01918D828D981761F0A28DAE0F3A
:10031000BF2FB11D5D968C91928D9F5F9F73928FC1
:1003200090E008958FEF9FEF0895FC01918D828DED
:10033000981731F0828DE80FF11D858D90E00895BA
:100340008FEF9FEF0895FC01918D228D892F90E012
:10035000805C9F4F821B91098F73992708958CE1D0
:1003600091E00E94A30121E0892B09F420E0822F73
:10037000089580E090E0892B29F00E94AF0181115F
:100380000C9400000895FC01A48DA80FB92FB11D95
:10039000A35ABF4F2C91848D90E001968F739927BB
:1003A000848FA689B7892C93A089B1898C91837099
:1003B00080648C93938D848D981306C00288F38992
:1003C000E02D80818F7D80830895EF92FF920F93BF
:1003D0001F93CF93DF93EC0181E0888F9B8D8C8DF1
:1003E00098131AC0E889F989808185FF15C09FB7E5
:1003F000F894EE89FF896083E889F98980818370A8
:10040000806480839FBF81E090E0DF91CF911F9156
:100410000F91FF90EF900895F62E0B8D10E00F5F77
:100420001F4F0F731127E02E8C8D8E110CC00FB64D
:1004300007FCFACFE889F989808185FFF5CFCE01E5
:100440000E94C301F1CFEB8DEC0FFD2FF11DE35A9C
:10045000FF4FF0829FB7F8940B8FEA89FB89808168
:100460008062CFCFCF93DF93EC01888D8823B9F0E2
:10047000AA89BB89E889F9898C9185FD03C08081AF
:1004800086FD0DC00FB607FCF7CF8C9185FFF2CF2C
:10049000808185FFEDCFCE010E94C301E9CFDF91BE
:1004A000CF9108951F920F920FB60F9211242F93A0
:1004B0003F938F939F93AF93BF938091C20190918D
:1004C000C301A091C401B091C5013091C10126E0E2
:1004D000230F2D3768F129E8230F0396A11DB11DC5
:1004E0002093C1018093C2019093C301A093C401E2
:1004F000B093C5018091BD019091BE01A091BF0153
:10050000B091C0010196A11DB11D8093BD019093D2
:10051000BE01A093BF01B093C001BF91AF919F9165
:100520008F913F912F910F900FBE0F901F901895B4
:100530000296A11DB11DD4CF1F920F920FB60F923C
:1005400011242F933F934F935F936F937F938F93D8
:100550009F93AF93BF93EF93FF938CE191E00E9441
:10056000C301FF91EF91BF91AF919F918F917F91C7
:100570006F915F914F913F912F910F900FBE0F9010
:100580001F9018951F920F920FB60F9211242F9360
:100590008F939F93EF93FF93E0912C01F0912D01A6
:1005A0008081E0913201F091330182FD1BC0908186
:1005B000809135018F5F8F7320913601821741F052
:1005C000E0913501F0E0E45EFE4F958F80933501B8
:1005D000FF91EF919F918F912F910F900FBE0F90F0
:1005E0001F9018958081F4CF789484B5836084BD82
:1005F00085B5836085BD80916E00816080936E00BB
:1006000092E09093810080918100816080938100CD
:10061000809180008160809380008091B10084602F
:100620008093B1008091B00081608093B00086E833
:1006300080937A001092C100E0912C01F0912D017D
:100640009083E0912801F09129011082E0912A0124
:10065000F0912B0187E6808310923401E091300104
:10066000F091310186E08083E0912E01F0912F011D
:10067000808188698083E0912E01F0912F01808133
:100680008F7D808382E3882E912CA12CB12C9EEC4F
:10069000492E55245A94652C752C01E010E0C2E0D7
:1006A000D0E023E0222E312C8FB7F894C090C20105
:1006B000D090C301E090C401F090C5018FBFC092FB
:1006C000B901D092BA01E092BB01F092BC018CE179
:1006D00091E00E94A301892B09F4F7C0C092180190
:1006E000D0921901E0921A01F0921B018CE191E085
:1006F0000E948101853608F04BC0809305019EEF72
:10070000980F903398F5D0930401C0930301809122
:100710000301909104018130910509F467C008F448
:1007200056C08230910509F477C0039709F458C088
:1007300080910001909101018130910509F495C0EB
:1007400008F484C08230910509F4A5C0039709F428
:1007500086C080E090E0892B09F4A6CF0E94AF010B
:10076000882309F4A1CF0E9400009ECF9DEC980F32
:10077000913328F41093040100930301C8CF813012
:1007800011F0823321F63092040120920301BFCF91
:100790009CE9980F909302012AE9280F203328F44E
:1007A000D0930101C0930001B2CF8759813328F45F
:1007B0001093010100930001AACF913019F09233F8
:1007C00009F0A5CF1092010110920001A0CF61E0C5
:1007D00089E00E948C0061E08AE00E948C00A8CF32
:1007E00060E089E00E948C0060E0F6CF2091050176
:1007F00030E050E040E02253310941095109AFEFA8
:10080000B0E00E94D304A50194010E94B404B90190
:1008100089E00E94D800E8CF60E089E00E948C0067
:100820002091050130E050E040E0245631094109B3
:100830005109AFEFB0E00E94D304A30192010E94DE
:10084000B404B9018AE00E94D80072CF61E085E06B
:100850000E948C0061E086E00E948C007ACF60E00C
:1008600085E00E948C0060E0F6CF2091020130E02C
:1008700050E040E02253310941095109AFEFB0E0A7
:100880000E94D304A50194010E94B404B90185E03B
:100890000E94D800E8CF60E085E00E948C002091A3
:1008A000020130E050E040E024563109410951098D
:1008B000AFEFB0E00E94D304A30192010E94B40400
:1008C000B90186E00E94D80044CF80911801909130
:1008D0001901A0911A01B0911B01C81AD90AEA0A9C
:1008E000FB0A85E6C816D104E104F10408F431CF0F
:1008F00060E085E00E948C0060E086E00E948C0051
:1009000060E089E00E948C0060E08AE0A5CFECE125
:10091000F1E01382128288EE93E0A0E0B0E08483DD
:100920009583A683B7838AE091E09183808385ECE9
:1009300090E09587848784EC90E09787868780ECA9
:1009400090E0918B808B81EC90E0938B828B82EC9A
:1009500090E0958B848B86EC90E0978B868B118E44
:10096000128E138E148E0895052E97FB1EF400949C
:100970000E94CB0457FD07D00E94DE0407FC03D081
:100980004EF40C94CB0450954095309521953F4FF3
:100990004F4F5F4F089590958095709561957F4F6B
:1009A0008F4F9F4F08950E940005A59F900DB49F03
:1009B000900DA49F800D911D11240895A1E21A2E7F
:1009C000AA1BBB1BFD010DC0AA1FBB1FEE1FFF1FF3
:1009D000A217B307E407F50720F0A21BB30BE40B43
:1009E000F50B661F771F881F991F1A9469F760958A
:1009F0007095809590959B01AC01BD01CF01089544
:100A0000A29FB001B39FC001A39F700D811D11244F
:100A1000911DB29F700D811D1124911D0895EE0F3F
:100A2000FF1F0590F491E02D0994F894FFCF030087
:100A3000FF0300FF00000000E501450172013202E2
:060A4000A30181019501F4
:107E8000112424B614BE80E079D021FEEBC08EE030
:107E900075D0E0ECF0E0AFE7BFEF4899FECF9096E9
:107EA000489BFDCFB4831197F1F7B2E0B083B8E1FE
:107EB000B18352D0C82F823569F466D0E0E0FEE786
:107EC000A89583E093D091D0E058F109C8F786E7F0
:107ED0003CD0EFCF8D7FD9F44CD0D82FA0E0B1E0CB
:107EE0003BD08D93DA13FCCFA0E0B1E04DD0C111AF
:107EF0000CC0F2BDE1BD8D9180BDFA9AF99A319620
:107F0000F999FECFD150A9F7E2CF48D0E0CFC330E6
:107F100041F42FD0C82F38D0859117D0C150E1F748
:107F2000D6CFC13061F425D0C82F2ED0F2BDE1BD2F
:107F3000F89A80B50AD03196C150C1F7C8CFC13583
:107F400011F488E01BD020D0C2CF9091C00095FFE3
:107F5000FCCF8093C60008952D9A259A8091C00089
:107F600087FFFCCF84FD13C0A8958091C6002D9893
:107F70000895F2DFE82FF0DFF82FEECF98E190932D
:107F80006000809360000895E7DF803219F088E098
:107F9000F5DFFFCF80EAD9CFFB01DC01E07870E8A4
:107FA0007A0F9F01E0388EE7F80728F5309629F41C
:107FB0008FE38D938FEC8C93119790E045915D91B9
:107FC00045139160A713FACFF901A058B10990FFAA
:107FD00012C083E00BD081E00D901D9007D0329647
:107FE000A713FACFF90185E001D081E187BFE895B9
:107FF00017B610FCFDCF112408950319CDCFE7402B
:00000001FF
