:100000000C945D000C9485000C9485000C94850084
:100010000C9485000C9485000C9485000C9485004C
:100020000C9485000C9485000C9485000C9485003C
:100030000C9485000C9485000C9485000C9485002C
:100040000C944D020C9485000C94BD020C94970204
:100050000C9485000C9485000C9485000C9485000C
:100060000C9485000C9485000000000024002700FB
:100070002A0000000000250028002B0004040404CE
:100080000404040402020202020203030303030342
:10009000010204081020408001020408102001021F
:1000A00004081020000000080002010000030407FB
:1000B0000000000000000000B20411241FBECFEFBA
:1000C000D8E0DEBFCDBF11E0A0E0B1E0E4E8FAE0A7
:1000D00002C005900D92A831B107D9F721E0A8E13F
:1000E000B1E001C01D92A63CB207E1F710E0CDE5FA
:1000F000D0E004C02197FE010E943A05CC35D1071B
:10010000C9F70E94EF020C9440050C94000090E0A7
:10011000FC01EC55FF4F2491FC01E057FF4F349157
:10012000FC01E458FF4FE491EE23C9F0222339F09B
:10013000233001F1A8F4213019F1223029F1F0E047
:10014000EE0FFF1FEE58FF4FA591B4918FB7F894B3
:10015000EC91611126C030953E233C938FBF0895EA
:100160002730A9F02830C9F0243049F78091800069
:100170008F7D03C0809180008F7780938000DFCFD8
:1001800084B58F7784BDDBCF84B58F7DFBCF809125
:10019000B0008F778093B000D2CF8091B0008F7D78
:1001A000F9CF3E2BDACF482F50E0FA01E057FF4F4E
:1001B0009491FA01E458FF4F2491222399F030E002
:1001C000220F331FF901E859FF4FA591B491F901AE
:1001D000EE58FF4F259134912FB7F894EC91E92B0D
:1001E000EC932FBF6115710519F460E00C94870042
:1001F0006F3F710511F461E0F9CFFA01EC55FF4F43
:10020000E491E33019F140F4E130B1F0E230C9F0AB
:100210006038710584F7E9CFE73011F1E83041F13A
:10022000E430B1F780918000806280938000709309
:100230008B0060938A00089584B5806884BD67BD93
:10024000089584B5806284BD68BD08958091800062
:10025000806880938000709389006093880008957F
:100260008091B00080688093B0006093B3000895DF
:100270008091B00080628093B0006093B4000895D4
:10028000AF92BF92CF92DF92EF92FF920F931F93A4
:10029000CF93DF936C017B018B01040F151FEB01E2
:1002A0005E01AE18BF08C017D10759F06991D60199
:1002B000ED91FC910190F081E02DC6010995892B0B
:1002C00079F7C501DF91CF911F910F91FF90EF90CA
:1002D000DF90CF90BF90AF900895FC01538D448D77
:1002E000252F30E0842F90E0821B930B541710F0E1
:1002F000CF96089501970895FC01918D828D9817EE
:1003000061F0A28DAE0FBF2FB11D5D968C91928DC5
:100310009F5F9F73928F90E008958FEF9FEF0895F6
:10032000FC01918D828D981731F0828DE80FF11DBF
:10033000858D90E008958FEF9FEF0895FC01918DDA
:10034000228D892F90E0805C9F4F821B91098F73D3
:10035000992708958CE191E00E949E0121E0892B6C
:1003600009F420E0822F089580E090E0892B29F0A5
:100370000E94AA0181110C9400000895FC01A48D33
:10038000A80FB92FB11DA35ABF4F2C91848D90E0B7
:1003900001968F739927848FA689B7892C93A0899A
:1003A000B1898C91837080648C93938D848D981324
:1003B00006C00288F389E02D80818F7D80830895B7
:1003C000EF92FF920F931F93CF93DF93EC0181E0A5
:1003D000888F9B8D8C8D98131AC0E889F98980814C
:1003E00085FF15C09FB7F894EE89FF896083E8897F
:1003F000F98980818370806480839FBF81E090E071
:10040000DF91CF911F910F91FF90EF900895F62EFD
:100410000B8D10E00F5F1F4F0F731127E02E8C8D97
:100420008E110CC00FB607FCFACFE889F9898081DC
:1004300085FFF5CFCE010E94BE01F1CFEB8DEC0F11
:10044000FD2FF11DE35AFF4FF0829FB7F8940B8FF9
:10045000EA89FB8980818062CFCFCF93DF93EC0163
:10046000888D8823B9F0AA89BB89E889F9898C919C
:1004700085FD03C0808186FD0DC00FB607FCF7CF58
:100480008C9185FFF2CF808185FFEDCFCE010E9458
:10049000BE01E9CFDF91CF9108951F920F920FB661
:1004A0000F9211242F933F938F939F93AF93BF93FA
:1004B0008091C2019091C301A091C401B091C50186
:1004C0003091C10123E0230F2D3758F50196A11D6E
:1004D000B11D2093C1018093C2019093C301A093E9
:1004E000C401B093C5018091BD019091BE01A0915E
:1004F000BF01B091C0010196A11DB11D8093BD0146
:100500009093BE01A093BF01B093C001BF91AF9182
:100510009F918F913F912F910F900FBE0F901F9041
:10052000189526E8230F0296A11DB11DD2CF1F9268
:100530000F920FB60F9211242F933F934F935F9317
:100540006F937F938F939F93AF93BF93EF93FF939B
:100550008CE191E00E94BE01FF91EF91BF91AF91BC
:100560009F918F917F916F915F914F913F912F91CB
:100570000F900FBE0F901F9018951F920F920FB6FD
:100580000F9211242F938F939F93EF93FF93E091FA
:100590002C01F0912D018081E0913201F091330125
:1005A00082FD1BC09081809135018F5F8F732091F8
:1005B0003601821741F0E0913501F0E0E45EFE4F34
:1005C000958F80933501FF91EF919F918F912F919E
:1005D0000F900FBE0F901F9018958081F4CF7894E4
:1005E00084B5826084BD84B5816084BD85B5826038
:1005F00085BD85B5816085BD80916E0081608093E9
:100600006E00109281008091810082608093810051
:100610008091810081608093810080918000816061
:10062000809380008091B10084608093B1008091BC
:10063000B00081608093B00080917A0084608093E4
:100640007A0080917A00826080937A0080917A00AB
:10065000816080937A0080917A00806880937A002C
:100660001092C100E0912C01F0912D0182E0808375
:10067000E0912C01F0912D011082E0912801F09180
:1006800029018DE08083E0912A01F0912B0184E023
:10069000808310923401E0913001F091310186E0C5
:1006A0008083E0912E01F0912F0180818061808311
:1006B000E0912E01F0912F01808188608083E0918C
:1006C0002E01F0912F01808180688083E0912E01BE
:1006D000F0912F0180818F7D808382E3882E912C81
:1006E000A12CB12C9EEC492E55245A94652C752CC6
:1006F00020E0222E20E0322E01E010E0C2E0D0E027
:100700008FB7F894C090C201D090C301E090C401AB
:10071000F090C5018FBFC092B901D092BA01E092AA
:10072000BB01F092BC018CE191E00E949E01892BFB
:1007300009F4F6C0C0921801D0921901E0921A0192
:10074000F0921B018CE191E00E947C01853608F05B
:100750004AC0809305019EEF980F903390F5D09397
:100760000401C09303018091030190910401813041
:10077000910509F466C008F455C08230910509F46A
:1007800076C0039709F457C0809100019091010150
:100790008130910509F494C008F483C0823091053A
:1007A00009F4A4C0039709F485C02114310409F4A5
:1007B000A7CF0E94AA01882309F4A2CF0E940000BB
:1007C0009FCF9DEC980F913328F410930401009370
:1007D0000301C9CF813011F0823329F61092040150
:1007E00010920301C0CF9CE9980F909302012AE96F
:1007F000280F203328F4D0930101C0930001B3CF18
:100800008759813328F41093010100930001ABCF85
:10081000913019F0923309F0A6CF10920101109295
:100820000001A1CF61E089E00E94870061E08AE0D9
:100830000E948700A9CF60E089E00E94870060E005
:10084000F6CF2091050130E050E040E0225331091D
:1008500041095109AFEFB0E00E94FE04A5019401E7
:100860000E94DF04B90189E00E94D300E8CF60E074
:1008700089E00E9487002091050130E050E040E0CF
:100880002456310941095109AFEFB0E00E94FE043E
:10089000A30192010E94DF04B9018AE00E94D30003
:1008A00073CF61E085E00E94870061E086E00E94EE
:1008B00087007BCF60E085E00E94870060E0F6CF94
:1008C0002091020130E050E040E02253310941091B
:1008D0005109AFEFB0E00E94FE04A50194010E940F
:1008E000DF04B90185E00E94D300E8CF60E085E035
:1008F0000E9487002091020130E050E040E0245641
:10090000310941095109AFEFB0E00E94FE04A30193
:1009100092010E94DF04B90186E00E94D30045CF16
:100920008091180190911901A0911A01B0911B01B9
:10093000C81AD90AEA0AFB0A85E6C816D104E104F6
:10094000F10408F432CF60E085E00E94870060E0A7
:1009500086E00E94870060E089E00E94870060E0F6
:100960008AE0A5CFECE1F1E01382128288EE93E0F9
:10097000A0E0B0E084839583A683B7838AE091E00A
:100980009183808385EC90E09587848784EC90E068
:100990009787868780EC90E0918B808B81EC90E04C
:1009A000938B828B82EC90E0958B848B86EC90E02D
:1009B000978B868B118E128E138E148E0895052EB2
:1009C00097FB1EF400940E94F60457FD07D00E9486
:1009D000090507FC03D04EF40C94F604509540959D
:1009E000309521953F4F4F4F5F4F089590958095DB
:1009F000709561957F4F8F4F9F4F08950E942B05F3
:100A0000A59F900DB49F900DA49F800D911D112462
:100A10000895A1E21A2EAA1BBB1BFD010DC0AA1F3F
:100A2000BB1FEE1FFF1FA217B307E407F50720F057
:100A3000A21BB30BE40BF50B661F771F881F991FD2
:100A40001A9469F760957095809590959B01AC011B
:100A5000BD01CF010895A29FB001B39FC001A39F24
:100A6000700D811D1124911DB29F700D811D1124E7
:100A7000911D0895EE0FFF1F0590F491E02D09944C
:040A8000F894FFCF18
:100A84000300FF0300FF00000000E00140016D01CE
:080A94002D029E017C0190017E
:00000001FF
