:100000000C948A000C94B2000C94B2000C94B200D0
:100010000C94B2000C94B2000C94B2000C94B20098
:100020000C94B2000C94B2000C94B2000C94B20088
:100030000C94B2000C94B2000C94B2000C94B20078
:100040000C9439020C94B2000C94A9020C94830213
:100050000C94B2000C94B2000C94B2000C94B20058
:100060000C94B2000C94B2000C94B2000C94B20048
:100070000C94B2000C94B2000C94B2000C94B20038
:100080000C94B2000C94B2000C94B2000C94B20028
:100090000C94B2000C94B2000C94B2000C94B20018
:1000A0000C94B2000C94B2000C94B2000C94B20008
:1000B0000C94B20000000000250028002B002E0048
:1000C00004040404040404040202020202020303FE
:1000D00003030303020203050505050102040810DA
:1000E0002040800102040810200102040810204072
:1000F0008040010204080A0D0E09000302000004FA
:1001000005080000000000000000000000000000E2
:1001100000004E0311241FBECFEFD8E0DEBFCDBFDD
:1001200011E0A0E0B1E0E6E0F7E002C005900D923A
:10013000A231B107D9F721E0A2E1B1E001C01D92DF
:10014000A83BB207E1F710E0CAE8D0E004C021976D
:10015000FE010E947B03C938D107C9F70E94DB0268
:100160000C9481030C940000282F30E0F901EA5030
:10017000FF4F9491F901E552FF4F849120543F4F76
:10018000F9012491222309F42EC09923D9F0925029
:100190009D30C0F4E92FF0E0E053FF4F0C947B0357
:1001A00016011A01DD00F400E200E200F800FE0092
:1001B00002010801E2000C011201909180009F777A
:1001C00090938000E22FF0E0EE0FFF1FEC54FF4F02
:1001D000A591B4919FB7F894EC9161112EC08095D0
:1001E0008E238C939FBF0895909180009F7DE8CFD0
:1001F0009091B0009F779093B000E4CF9091B000C1
:100200009F7DF9CF909190009F7790939000DACFE7
:10021000909190009F7DF9CF9091A0009F7790934F
:10022000A000D0CF9091A0009F7DF9CF94B59F778B
:1002300094BDC8CF94B59F7DFBCF8E2BD2CFAF920C
:10024000BF92CF92DF92EF92FF920F931F93CF93C3
:10025000DF936C017B018B01040F151FEB015E0125
:10026000AE18BF08C017D10759F06991D601ED91BA
:10027000FC910190F081E02DC6010995892B79F759
:10028000C501DF91CF911F910F91FF90EF90DF900B
:10029000CF90BF90AF900895FC01538D448D252FD2
:1002A00030E0842F90E0821B930B541710F0CF9610
:1002B000089501970895FC01918D828D981761F042
:1002C000A28DAE0FBF2FB11D5D968C91928D9F5F59
:1002D0009F73928F90E008958FEF9FEF0895FC0138
:1002E000918D828D981731F0828DE80FF11D858DEB
:1002F00090E008958FEF9FEF0895FC01918D228D7E
:10030000892F90E0805C9F4F821B91098F73992702
:10031000089582E191E00E947D0121E0892B09F49A
:1003200020E0822F0895FC01A48DA80FB92FB11DE4
:10033000A35ABF4F2C91848D90E001968F7399271B
:10034000848FA689B7892C93A089B1898C918370F9
:1003500080648C93938D848D981306C00288F389F2
:10036000E02D80818F7D80830895EF92FF920F931F
:100370001F93CF93DF93EC0181E0888F9B8D8C8D51
:1003800098131AC0E889F989808185FF15C09FB745
:10039000F894EE89FF896083E889F9898081837008
:1003A000806480839FBF81E090E0DF91CF911F91B7
:1003B0000F91FF90EF900895F62E0B8D10E00F5FD8
:1003C0001F4F0F731127E02E8C8D8E110CC00FB6AE
:1003D00007FCFACFE889F989808185FFF5CFCE0146
:1003E0000E949301F1CFEB8DEC0FFD2FF11DE35A2D
:1003F000FF4FF0829FB7F8940B8FEA89FB898081C9
:100400008062CFCFCF93DF93EC01888D8823B9F042
:10041000AA89BB89E889F9898C9185FD03C080810F
:1004200086FD0DC00FB607FCF7CF8C9185FFF2CF8C
:10043000808185FFEDCFCE010E949301E9CFDF914E
:10044000CF91089580E090E0892B29F00E948901E6
:1004500081110E94000080E090E0892B49F080E04B
:1004600090E0892B29F00E94000081110C9400007B
:1004700008951F920F920FB60F9211242F933F935E
:100480008F939F93AF93BF938091B4019091B501E7
:10049000A091B601B091B7013091B30126E0230FCE
:1004A0002D3768F129E8230F0396A11DB11D209374
:1004B000B3018093B4019093B501A093B601B093BA
:1004C000B7018091AF019091B001A091B101B091BD
:1004D000B2010196A11DB11D8093AF019093B001AF
:1004E000A093B101B093B201BF91AF919F918F9151
:1004F0003F912F910F900FBE0F901F90189502966D
:10050000A11DB11DD4CF1F920F920FB60F921124CF
:100510002F933F934F935F936F937F938F939F930B
:10052000AF93BF93EF93FF9382E191E00E94930119
:10053000FF91EF91BF91AF919F918F917F916F91BB
:100540005F914F913F912F910F900FBE0F901F9091
:1005500018951F920F920FB60F9211242F938F931D
:100560009F93EF93FF93E0912201F091230180810B
:10057000E0912801F091290182FD1BC090818091BA
:100580002B018F5F8F7320912C01821741F0E09136
:100590002B01F0E0EE5EFE4F958F80932B01FF91D3
:1005A000EF919F918F912F910F900FBE0F901F9001
:1005B00018958081F4CF789484B5836084BD85B527
:1005C000836085BD80916E00816080936E0092E0B3
:1005D000909381008091810081608093810080915F
:1005E00080008160809380008091B100846080935E
:1005F000B1008091B00081608093B0008091910043
:10060000836080939100809190008160809390003E
:100610008091A10083608093A1008091A0008160FF
:100620008093A00086E880937A001092C100E09148
:100630002201F09123019083E0911E01F0911F01AE
:100640001082E0912001F091210187E680831092D1
:100650002A01E0912601F091270186E08083E09154
:100660002401F0912501808188698083E091240133
:10067000F091250180818F7D808382E191E00E944D
:100680007D01892B41F061E085E00E94B40060E0CB
:1006900086E00E94B4000E942202EFCFE2E1F1E086
:1006A0001382128288EE93E0A0E0B0E08483958309
:1006B000A683B78384E091E09183808385EC90E00A
:1006C0009587848784EC90E09787868780EC90E01C
:1006D000918B808B81EC90E0938B828B82EC90E00D
:1006E000958B848B86EC90E0978B868B118E128E87
:1006F000138E148E0895EE0FFF1F0590F491E02DD8
:060700000994F894FFCFFC
:1007060000000000B5011F014C0102027D015B01E2
:020716006F0171
:00000001FF
